{
  "contractName": "TempleDonation",
  "abi": [
    {
      "inputs": [],
      "stateMutability": "nonpayable",
      "type": "constructor"
    },
    {
      "stateMutability": "payable",
      "type": "fallback",
      "payable": true
    },
    {
      "inputs": [],
      "name": "causeCount",
      "outputs": [
        {
          "internalType": "uint256",
          "name": "",
          "type": "uint256"
        }
      ],
      "stateMutability": "view",
      "type": "function",
      "constant": true
    },
    {
      "inputs": [
        {
          "internalType": "uint256",
          "name": "",
          "type": "uint256"
        }
      ],
      "name": "causes",
      "outputs": [
        {
          "internalType": "string",
          "name": "name",
          "type": "string"
        },
        {
          "internalType": "uint256",
          "name": "balance",
          "type": "uint256"
        },
        {
          "internalType": "uint256",
          "name": "transactionCount",
          "type": "uint256"
        }
      ],
      "stateMutability": "view",
      "type": "function",
      "constant": true
    },
    {
      "inputs": [],
      "name": "owner",
      "outputs": [
        {
          "internalType": "address",
          "name": "",
          "type": "address"
        }
      ],
      "stateMutability": "view",
      "type": "function",
      "constant": true
    },
    {
      "inputs": [],
      "name": "templeAccount",
      "outputs": [
        {
          "internalType": "address",
          "name": "",
          "type": "address"
        }
      ],
      "stateMutability": "view",
      "type": "function",
      "constant": true
    },
    {
      "inputs": [],
      "name": "totalDonation",
      "outputs": [
        {
          "internalType": "uint256",
          "name": "",
          "type": "uint256"
        }
      ],
      "stateMutability": "view",
      "type": "function",
      "constant": true
    },
    {
      "stateMutability": "payable",
      "type": "receive",
      "payable": true
    },
    {
      "inputs": [
        {
          "internalType": "string",
          "name": "_name",
          "type": "string"
        }
      ],
      "name": "addCause",
      "outputs": [],
      "stateMutability": "nonpayable",
      "type": "function"
    },
    {
      "inputs": [
        {
          "internalType": "uint256",
          "name": "_causeId",
          "type": "uint256"
        }
      ],
      "name": "deleteCause",
      "outputs": [],
      "stateMutability": "nonpayable",
      "type": "function"
    },
    {
      "inputs": [
        {
          "internalType": "uint256",
          "name": "_causeId",
          "type": "uint256"
        }
      ],
      "name": "donate",
      "outputs": [],
      "stateMutability": "payable",
      "type": "function",
      "payable": true
    },
    {
      "inputs": [
        {
          "internalType": "uint256",
          "name": "_causeId",
          "type": "uint256"
        },
        {
          "internalType": "uint256",
          "name": "_amount",
          "type": "uint256"
        },
        {
          "internalType": "address payable",
          "name": "_to",
          "type": "address"
        }
      ],
      "name": "spend",
      "outputs": [],
      "stateMutability": "nonpayable",
      "type": "function"
    },
    {
      "inputs": [
        {
          "internalType": "uint256",
          "name": "_causeId",
          "type": "uint256"
        }
      ],
      "name": "getBalance",
      "outputs": [
        {
          "internalType": "uint256",
          "name": "",
          "type": "uint256"
        }
      ],
      "stateMutability": "view",
      "type": "function",
      "constant": true
    },
    {
      "inputs": [],
      "name": "getTotalBalance",
      "outputs": [
        {
          "internalType": "uint256",
          "name": "",
          "type": "uint256"
        }
      ],
      "stateMutability": "view",
      "type": "function",
      "constant": true
    },
    {
      "inputs": [
        {
          "internalType": "uint256",
          "name": "_causeId",
          "type": "uint256"
        }
      ],
      "name": "getTransactionCount",
      "outputs": [
        {
          "internalType": "uint256",
          "name": "",
          "type": "uint256"
        }
      ],
      "stateMutability": "view",
      "type": "function",
      "constant": true
    },
    {
      "inputs": [
        {
          "internalType": "uint256",
          "name": "_causeId",
          "type": "uint256"
        },
        {
          "internalType": "uint256",
          "name": "_transactionId",
          "type": "uint256"
        }
      ],
      "name": "getTransaction",
      "outputs": [
        {
          "internalType": "address",
          "name": "",
          "type": "address"
        },
        {
          "internalType": "uint256",
          "name": "",
          "type": "uint256"
        },
        {
          "internalType": "bool",
          "name": "",
          "type": "bool"
        }
      ],
      "stateMutability": "view",
      "type": "function",
      "constant": true
    }
  ],
  "bytecode": "0x608060405234801561001057600080fd5b50336000806101000a81548173ffffffffffffffffffffffffffffffffffffffff021916908373ffffffffffffffffffffffffffffffffffffffff1602179055506115e2806100606000396000f3fe6080604052600436106100c65760003560e01c8063708fa10b1161007f5780639a79edec116100595780639a79edec1461029a578063a6777dcf146102c5578063ee2ac05f146102ee578063f14faf6f14610319576100cd565b8063708fa10b146102055780637303f6ce146102305780638da5cb5b1461026f576100cd565b806312b58349146100cf5780631b8d586a146100fa5780631e010439146101235780633de5d0de14610160578063513a72ce1461019d578063538a942a146101c6576100cd565b366100cd57005b005b3480156100db57600080fd5b506100e4610335565b6040516100f19190610df3565b60405180910390f35b34801561010657600080fd5b50610121600480360381019061011c9190610eac565b610368565b005b34801561012f57600080fd5b5061014a60048036038101906101459190610eff565b610649565b6040516101579190610df3565b60405180910390f35b34801561016c57600080fd5b5061018760048036038101906101829190610eff565b6106b9565b6040516101949190610df3565b60405180910390f35b3480156101a957600080fd5b506101c460048036038101906101bf9190610eff565b610729565b005b3480156101d257600080fd5b506101ed60048036038101906101e89190610eff565b610841565b6040516101fc93929190610fc5565b60405180910390f35b34801561021157600080fd5b5061021a6108f3565b6040516102279190611024565b60405180910390f35b34801561023c57600080fd5b506102576004803603810190610252919061103f565b61090b565b6040516102669392919061109a565b60405180910390f35b34801561027b57600080fd5b50610284610a3a565b6040516102919190611024565b60405180910390f35b3480156102a657600080fd5b506102af610a5e565b6040516102bc9190610df3565b60405180910390f35b3480156102d157600080fd5b506102ec60048036038101906102e79190611206565b610a64565b005b3480156102fa57600080fd5b50610303610b40565b6040516103109190610df3565b60405180910390f35b610333600480360381019061032e9190610eff565b610b46565b005b60007317f6ad8ef982297579c203069c1dbffe4348c37273ffffffffffffffffffffffffffffffffffffffff1631905090565b60008054906101000a900473ffffffffffffffffffffffffffffffffffffffff1673ffffffffffffffffffffffffffffffffffffffff163373ffffffffffffffffffffffffffffffffffffffff16146103f6576040517f08c379a00000000000000000000000000000000000000000000000000000000081526004016103ed906112c1565b60405180910390fd5b60008311801561040857506003548311155b610447576040517f08c379a000000000000000000000000000000000000000000000000000000000815260040161043e9061132d565b60405180910390fd5b60026000848152602001908152602001600020600101548211156104a0576040517f08c379a0000000000000000000000000000000000000000000000000000000008152600401610497906113bf565b60405180910390fd5b816002600085815260200190815260200160002060010160008282546104c6919061140e565b9250508190555081600160008282546104df919061140e565b925050819055508073ffffffffffffffffffffffffffffffffffffffff166108fc839081150290604051600060405180830381858888f1935050505015801561052c573d6000803e3d6000fd5b5060026000848152602001908152602001600020600301600081548092919061055490611442565b919050555060006002600085815260200190815260200160002060030154905060405180606001604052808373ffffffffffffffffffffffffffffffffffffffff1681526020018481526020016000151581525060026000868152602001908152602001600020600201600083815260200190815260200160002060008201518160000160006101000a81548173ffffffffffffffffffffffffffffffffffffffff021916908373ffffffffffffffffffffffffffffffffffffffff1602179055506020820151816001015560408201518160020160006101000a81548160ff02191690831515021790555090505050505050565b6000808211801561065c57506003548211155b61069b576040517f08c379a00000000000000000000000000000000000000000000000000000000081526004016106929061132d565b60405180910390fd5b60026000838152602001908152602001600020600101549050919050565b600080821180156106cc57506003548211155b61070b576040517f08c379a00000000000000000000000000000000000000000000000000000000081526004016107029061132d565b60405180910390fd5b60026000838152602001908152602001600020600301549050919050565b60008054906101000a900473ffffffffffffffffffffffffffffffffffffffff1673ffffffffffffffffffffffffffffffffffffffff163373ffffffffffffffffffffffffffffffffffffffff16146107b7576040517f08c379a00000000000000000000000000000000000000000000000000000000081526004016107ae906112c1565b60405180910390fd5b6000811180156107c957506003548111155b610808576040517f08c379a00000000000000000000000000000000000000000000000000000000081526004016107ff9061132d565b60405180910390fd5b600260008281526020019081526020016000206000808201600061082c9190610cf7565b60018201600090556003820160009055505050565b6002602052806000526040600020600091509050806000018054610864906114b9565b80601f0160208091040260200160405190810160405280929190818152602001828054610890906114b9565b80156108dd5780601f106108b2576101008083540402835291602001916108dd565b820191906000526020600020905b8154815290600101906020018083116108c057829003601f168201915b5050505050908060010154908060030154905083565b7317f6ad8ef982297579c203069c1dbffe4348c37281565b6000806000808511801561092157506003548511155b610960576040517f08c379a00000000000000000000000000000000000000000000000000000000081526004016109579061132d565b60405180910390fd5b600084118015610986575060026000868152602001908152602001600020600301548411155b6109c5576040517f08c379a00000000000000000000000000000000000000000000000000000000081526004016109bc90611536565b60405180910390fd5b600060026000878152602001908152602001600020600201600086815260200190815260200160002090508060000160009054906101000a900473ffffffffffffffffffffffffffffffffffffffff1681600101548260020160009054906101000a900460ff16935093509350509250925092565b60008054906101000a900473ffffffffffffffffffffffffffffffffffffffff1681565b60035481565b60008054906101000a900473ffffffffffffffffffffffffffffffffffffffff1673ffffffffffffffffffffffffffffffffffffffff163373ffffffffffffffffffffffffffffffffffffffff1614610af2576040517f08c379a0000000000000000000000000000000000000000000000000000000008152600401610ae9906112c1565b60405180910390fd5b60036000815480929190610b0590611442565b91905055506000600260006003548152602001908152602001600020905081816000019080519060200190610b3b929190610d37565b505050565b60015481565b600081118015610b5857506003548111155b610b97576040517f08c379a0000000000000000000000000000000000000000000000000000000008152600401610b8e9061132d565b60405180910390fd5b34600260008381526020019081526020016000206001016000828254610bbd9190611556565b925050819055503460016000828254610bd69190611556565b92505081905550600260008281526020019081526020016000206003016000815480929190610c0490611442565b919050555060006002600083815260200190815260200160002060030154905060405180606001604052803373ffffffffffffffffffffffffffffffffffffffff1681526020013481526020016001151581525060026000848152602001908152602001600020600201600083815260200190815260200160002060008201518160000160006101000a81548173ffffffffffffffffffffffffffffffffffffffff021916908373ffffffffffffffffffffffffffffffffffffffff1602179055506020820151816001015560408201518160020160006101000a81548160ff0219169083151502179055509050505050565b508054610d03906114b9565b6000825580601f10610d155750610d34565b601f016020900490600052602060002090810190610d339190610dbd565b5b50565b828054610d43906114b9565b90600052602060002090601f016020900481019282610d655760008555610dac565b82601f10610d7e57805160ff1916838001178555610dac565b82800160010185558215610dac579182015b82811115610dab578251825591602001919060010190610d90565b5b509050610db99190610dbd565b5090565b5b80821115610dd6576000816000905550600101610dbe565b5090565b6000819050919050565b610ded81610dda565b82525050565b6000602082019050610e086000830184610de4565b92915050565b6000604051905090565b600080fd5b600080fd5b610e2b81610dda565b8114610e3657600080fd5b50565b600081359050610e4881610e22565b92915050565b600073ffffffffffffffffffffffffffffffffffffffff82169050919050565b6000610e7982610e4e565b9050919050565b610e8981610e6e565b8114610e9457600080fd5b50565b600081359050610ea681610e80565b92915050565b600080600060608486031215610ec557610ec4610e18565b5b6000610ed386828701610e39565b9350506020610ee486828701610e39565b9250506040610ef586828701610e97565b9150509250925092565b600060208284031215610f1557610f14610e18565b5b6000610f2384828501610e39565b91505092915050565b600081519050919050565b600082825260208201905092915050565b60005b83811015610f66578082015181840152602081019050610f4b565b83811115610f75576000848401525b50505050565b6000601f19601f8301169050919050565b6000610f9782610f2c565b610fa18185610f37565b9350610fb1818560208601610f48565b610fba81610f7b565b840191505092915050565b60006060820190508181036000830152610fdf8186610f8c565b9050610fee6020830185610de4565b610ffb6040830184610de4565b949350505050565b600061100e82610e4e565b9050919050565b61101e81611003565b82525050565b60006020820190506110396000830184611015565b92915050565b6000806040838503121561105657611055610e18565b5b600061106485828601610e39565b925050602061107585828601610e39565b9150509250929050565b60008115159050919050565b6110948161107f565b82525050565b60006060820190506110af6000830186611015565b6110bc6020830185610de4565b6110c9604083018461108b565b949350505050565b600080fd5b600080fd5b7f4e487b7100000000000000000000000000000000000000000000000000000000600052604160045260246000fd5b61111382610f7b565b810181811067ffffffffffffffff82111715611132576111316110db565b5b80604052505050565b6000611145610e0e565b9050611151828261110a565b919050565b600067ffffffffffffffff821115611171576111706110db565b5b61117a82610f7b565b9050602081019050919050565b82818337600083830152505050565b60006111a96111a484611156565b61113b565b9050828152602081018484840111156111c5576111c46110d6565b5b6111d0848285611187565b509392505050565b600082601f8301126111ed576111ec6110d1565b5b81356111fd848260208601611196565b91505092915050565b60006020828403121561121c5761121b610e18565b5b600082013567ffffffffffffffff81111561123a57611239610e1d565b5b611246848285016111d8565b91505092915050565b7f4f6e6c7920636f6e7472616374206f776e65722063616e2063616c6c2074686960008201527f732066756e6374696f6e00000000000000000000000000000000000000000000602082015250565b60006112ab602a83610f37565b91506112b68261124f565b604082019050919050565b600060208201905081810360008301526112da8161129e565b9050919050565b7f496e76616c696420636175736520494400000000000000000000000000000000600082015250565b6000611317601083610f37565b9150611322826112e1565b602082019050919050565b600060208201905081810360008301526113468161130a565b9050919050565b7f496e73756666696369656e742066756e647320666f722074686973206361757360008201527f6500000000000000000000000000000000000000000000000000000000000000602082015250565b60006113a9602183610f37565b91506113b48261134d565b604082019050919050565b600060208201905081810360008301526113d88161139c565b9050919050565b7f4e487b7100000000000000000000000000000000000000000000000000000000600052601160045260246000fd5b600061141982610dda565b915061142483610dda565b925082821015611437576114366113df565b5b828203905092915050565b600061144d82610dda565b91507fffffffffffffffffffffffffffffffffffffffffffffffffffffffffffffffff820361147f5761147e6113df565b5b600182019050919050565b7f4e487b7100000000000000000000000000000000000000000000000000000000600052602260045260246000fd5b600060028204905060018216806114d157607f821691505b6020821081036114e4576114e361148a565b5b50919050565b7f496e76616c6964207472616e73616374696f6e20494400000000000000000000600082015250565b6000611520601683610f37565b915061152b826114ea565b602082019050919050565b6000602082019050818103600083015261154f81611513565b9050919050565b600061156182610dda565b915061156c83610dda565b9250827fffffffffffffffffffffffffffffffffffffffffffffffffffffffffffffffff038211156115a1576115a06113df565b5b82820190509291505056fea2646970667358221220236d223b898d633422a262518a7d15dc6c8e6377d4d05d0e5c670ae172adacbf64736f6c634300080d0033",
  "immutableReferences": {},
  "source": "// SPDX-License-Identifier: MIT\npragma solidity ^0.8.9;\n\n\ncontract TempleDonation {\n    address public constant templeAccount = 0x17F6AD8Ef982297579C203069C1DbfFE4348c372;  // Address of the temple account\n    address public owner;          // Address of the contract owner\n    uint public totalDonation;     // Total amount donated to the temple\n\n    // Structure to represent a transaction\n    struct Transaction {\n        address sender;\n        uint amount;\n        bool isIncome;  // true if income, false if expense\n    }\n\n    // Structure to represent a cause\n    struct Cause {\n        string name;\n        uint balance;               // Balance for this cause\n        mapping(uint => Transaction) transactions; // Transactions for this cause\n        uint transactionCount;      // Transaction count for this cause\n    }\n\n    mapping(uint => Cause) public causes; // Mapping of cause ID to Cause\n    uint public causeCount;                // Total count of causes\n\n    constructor() {\n        owner = msg.sender;\n    }\n\n    // Modifier to check if the caller is the contract owner\n    modifier onlyOwner() {\n        require(msg.sender == owner, \"Only contract owner can call this function\");\n        _;\n    }\n\n    // Function to add a new cause\n    function addCause(string memory _name) public onlyOwner {\n        causeCount++;\n        Cause storage newCause = causes[causeCount];\n        newCause.name = _name;\n    }\n\n    // Function to delete a cause\n    function deleteCause(uint _causeId) public onlyOwner {\n        require(_causeId > 0 && _causeId <= causeCount, \"Invalid cause ID\");\n        delete causes[_causeId];\n    }\n\n    // Function to donate to a specific cause\n    function donate(uint _causeId) public payable {\n        require(_causeId > 0 && _causeId <= causeCount, \"Invalid cause ID\");\n        causes[_causeId].balance += msg.value;\n        totalDonation += msg.value;\n        // Adding the transaction\n        causes[_causeId].transactionCount++;\n        uint transactionId = causes[_causeId].transactionCount;\n        causes[_causeId].transactions[transactionId] = Transaction(msg.sender, msg.value, true);\n    }\n\n    // Function to spend money from a cause to a specified address\n    function spend(uint _causeId, uint _amount, address payable _to) public onlyOwner {\n        require(_causeId > 0 && _causeId <= causeCount, \"Invalid cause ID\");\n        require(_amount <= causes[_causeId].balance, \"Insufficient funds for this cause\");\n        causes[_causeId].balance -= _amount;\n        totalDonation -= _amount;\n        _to.transfer(_amount);  // Transfer the amount to the specified address\n        // Adding the transaction\n        causes[_causeId].transactionCount++;\n        uint transactionId = causes[_causeId].transactionCount;\n        causes[_causeId].transactions[transactionId] = Transaction(_to, _amount, false);\n    }\n\n    // Function to get the balance of a specific cause\n    function getBalance(uint _causeId) public view returns (uint) {\n        require(_causeId > 0 && _causeId <= causeCount, \"Invalid cause ID\");\n        return causes[_causeId].balance;\n    }\n\n    // Function to get the total balance of the temple account\n    function getTotalBalance() public view returns (uint) {\n        return templeAccount.balance;\n    }\n\n    // Function to get the transaction count of a specific cause\n    function getTransactionCount(uint _causeId) public view returns (uint) {\n        require(_causeId > 0 && _causeId <= causeCount, \"Invalid cause ID\");\n        return causes[_causeId].transactionCount;\n    }\n\n    // Function to get a specific transaction of a cause\n    function getTransaction(uint _causeId, uint _transactionId) public view returns (address, uint, bool) {\n        require(_causeId > 0 && _causeId <= causeCount, \"Invalid cause ID\");\n        require(_transactionId > 0 && _transactionId <= causes[_causeId].transactionCount, \"Invalid transaction ID\");\n        Transaction storage transaction = causes[_causeId].transactions[_transactionId];\n        return (transaction.sender, transaction.amount, transaction.isIncome);\n    }\n\n    // Function to receive Ether. msg.data must be empty\n    receive() external payable {}\n\n    // Fallback function is called when msg.data is not empty\n    fallback() external payable {}\n}",
  "sourcePath": "/Users/none/Desktop/temple-trust/contracts/TempleDonation.sol",
  "compiler": {
    "name": "solc",
    "version": "0.8.13+commit.abaa5c0e.Emscripten.clang"
  },
  "schemaVersion": "3.4.16",
  "updatedAt": "2024-06-06T04:13:24.394Z",
  "networkType": "ethereum",
  "devdoc": {
    "kind": "dev",
    "methods": {},
    "version": 1
  },
  "userdoc": {
    "kind": "user",
    "methods": {},
    "version": 1
  }
}